:020000040000FA
:100000000C9481010C943E220C9413220C94E82150
:100010000C94BD210C9492210C9467210C943C21EA
:100020000C9411210C94B2010C94B2010C94B20105
:100030000C94B2010C94B2010C94B2010C94B20174
:100040000C94B2010C94B2010C94B2010C94B20164
:100050000C94B2010C94B2010C94B2010C94C72020
:100060000C94B2010C9493220C9469220C94B2016A
:100070000C94B2010C94B2010C94B2010C94B20134
:100080000C94B2010C94B2010C94B2010C94B20124
:100090000C94B2010C94B2010C94B2010C94C922DC
:1000A0000C94B2010C94B2010C94B2010C94B20104
:1000B0000C94B2010C94B2010C94B2010C94B201F4
:1000C0000C94B2010C94B2010C94B2010C94B201E4
:1000D0000C94B2010C94B2010C94B2010C94B201D4
:1000E0000C94B2010C946A040C94831C0C942403A9
:1000F0000C9432030C9401030C942E030C942311E2
:100100000C94AE2C0C9405030C94B80C0C94400386
:100110000C94E4280C948D040C9428030C94200572
:100120000C94B4110C948B110C940D030C941603C5
:100130000C94580F0C943D040C94480F0C941A0323
:100140000C9447150C949A110C943C030C94ED23D9
:100150000C94732C0C946E130C949B040C94360327
:100160000C9452180C9409030C9410030C94790409
:100170000C9420030C943B040C94F7120C949C2CCC
:100180000C943C040C94CD2C0C94E1110C94280F8D
:100190000C94792C0C943A040C941F0F0C94D304F7
:1001A0000C948A110C94FB020C94AD110C94FF106A
:1001B0000C94AA100C9493180C94BE0E0C943B0350
:1001C0000C94750F6364696E6F70737578585B007B
:1001D0007C3C3E5E2B3D3F2F5B5D3B2C2A225C002E
:1001E00000002100240027002A002D0030003300E9
:1001F00001010000040107010A010000220025009E
:1002000028002B002E0031003400020100000501FF
:1002100008010B0100000A0B02090C0D0E08070370
:1002200004010000000000000000000000000000C9
:1002300000000000000000000000000000000000BE
:10024000121110000000000000000000000000007B
:100250000000000000000000000001021020200843
:100260000810204010204080020102010804020111
:100270000102040810204080804020100804020180
:1002800080040201804020100804020108040201D9
:100290000102040810204080010204081020408060
:1002A000000020002300260029002C002F0032002F
:1002B0000001000003010601090105050505070508
:1002C00008080808020202020A0A080804040404D2
:1002D00001010101010101010303030303030303FE
:1002E000040707070C0C0C0C0C0C0C0C020202028D
:1002F00006060606060606060B0B0B0B0B0B0B0B76
:10030000ED2311241FBECFEFD1E2DEBFCDBF00E051
:100310000CBF28E0A6E9B3E001C01D92AC38B207DB
:10032000E1F713E0A0E0B2E0EEECFBE600E00BBF8B
:1003300002C007900D92A639B107D9F711E0C1E8C4
:10034000D1E000E006C021970109802FFE010E9444
:10035000772EC038D10780E00807A9F70E949A25B8
:100360000C94E5350C940000CF93DF93FC0182815F
:100370009381909358088093570884819581A68132
:10038000B7818093590890935A08A0935B08B09363
:100390005C0880859185A285B38580935D089093E4
:1003A0005E08A0935F08B0936008DF011C96CF0140
:1003B0004996C1E6D8E02D912993A817B907D9F736
:1003C000818D928D90936F0880936E0885E598E0FB
:1003D000DF91CF910895E0916E08F0916F0830970A
:1003E00021F081E09581911101C080E00895E091B4
:1003F000E406F091E506309719F08FE197E0199542
:1004000080912007823F09F4BAC090F5803C09F43E
:1004100099C0B8F4803909F44FC040F4E091E8067F
:10042000F091E906803809F44BC00895803A09F448
:1004300084C0E091EE06F091EF06803B09F440C0E5
:100440000895803E09F462C040F4E091F206F09114
:10045000F306803D09F47AC00895803F09F47DC019
:10046000E091F806F091F906813F09F49BC00895E8
:100470008A3FC1F1A8F4863F09F499C040F4E091A5
:10048000FC06F091FD06833F09F48CC00895883F77
:1004900009F1E0910407F0910507893FF9F008950B
:1004A0008C3F51F120F18E3F61F1E0910C07F0910A
:1004B0000D078F3F99F00895E091EA06F091EB0661
:1004C000309709F479C0409122076091210780910B
:1004D0001F071994E0910007F0910107309709F484
:1004E0006BC01994E0910207F0910307F7CFE091F8
:1004F0000607F0910707F2CFE0910807F09109078E
:10050000EDCFE0910A07F0910B07E8CFE091F406F8
:10051000F091F506309709F44FC06091220720E86A
:10052000629FB001112460787F73809121078F77DB
:10053000682B705280911F071994E091EC06F0919E
:10054000ED06BECFE091F006F091F1063097A1F1F3
:100550006091210780911F071994E091F606F091B0
:10056000F706309749F160912107709122076138B1
:10057000710510F060E870E083E297E01994E09173
:10058000FA06F091FB063097B9F08091220720E837
:10059000829FC001112480789F73209121072F77BB
:1005A000822B1994309741F0809121071994E091A2
:1005B000FE06F091FF0692CF08958150823108F037
:1005C0005AC0E82FF0E08827E751FD4F8F4F0C9479
:1005D000772E09030D03FB02010305033B03100300
:1005E00016031A032003240328032E0332033B03BC
:1005F00036033C034003809180008F778093800016
:100600000895809180008F7DF9CF80918000877F51
:10061000F5CF84B58F7784BD089584B58F7DFBCFEA
:100620008091B0008F778093B00008958091B000E2
:100630008F7DF9CF809190008F77809390000895FF
:10064000809190008F7DF9CF80919000877FF5CFCA
:100650008091A0008F778093A00008958091A000E2
:100660008F7DF9CF8091A000877FF5CF8091200109
:100670008F77809320010895809120018F7DF9CF9D
:1006800080912001877FF5CFCF93DF93282F30E033
:10069000F901EC5EFD4F8491F901E65AFD4FD491CA
:1006A000F901E654FD4FC491CC23A1F081110E94C1
:1006B000DD02EC2FF0E0EE0FFF1FE056FD4FA5919D
:1006C000B491EC91ED2381E090E009F480E0DF91BA
:1006D000CF91089580E090E0FACF1F93CF93DF93FE
:1006E000282F30E0F901EC5EFD4F8491F901E65AC4
:1006F000FD4FD491F901E654FD4FC491CC23A9F0EC
:10070000162F81110E94DD02EC2FF0E0EE0FFF1F8B
:10071000E650FE4FA591B4918FB7F894EC9111116A
:1007200008C0D095DE23DC938FBFDF91CF911F915E
:100730000895DE2BF8CFCF93DF9390E0FC01E65ACB
:10074000FD4F249186549D4FFC0184918823C9F06C
:1007500090E0880F991FFC01E052FE4FA591B491E3
:10076000FC01E650FE4FC591D49161110DC09FB7B9
:10077000F8948C91209582238C9388812823288358
:100780009FBFDF91CF910895623051F49FB7F894E5
:100790003C91822F809583238C93E8812E2BEFCF81
:1007A0008FB7F894EC912E2B2C938FBFEACF3FB7E5
:1007B000F89480917B0490917C04A0917D04B09189
:1007C0007E0426B5A89B05C02F3F19F00196A11DF8
:1007D000B11D3FBFBA2FA92F982F8827BC01CD018B
:1007E000620F711D811D911D42E0660F771F881FEA
:1007F000991F4A95D1F708958F929F92AF92BF9219
:10080000CF92DF92EF92FF924B015C010E94D703DF
:100810006B017C010E94D7036C197D098E099F0929
:10082000683E734081059105A8F321E0821A910882
:10083000A108B10888EEC80E83E0D81EE11CF11CA7
:1008400081149104A104B10429F7FF90EF90DF9087
:10085000CF90BF90AF909F908F9008952FB7F8944E
:1008600060917704709178048091790490917A0472
:100870002FBF0895089508950895AF92BF92CF9223
:10088000DF92EF92FF920F931F93CF93DF936C0150
:100890007B018B01040F151FEB015E01AE18BF0831
:1008A000C017D10759F06991D601ED91FC910190E3
:1008B000F081E02DC6011995892B79F7C501DF91EB
:1008C000CF911F910F91FF90EF90DF90CF90BF904D
:1008D000AF900895FC01538D448D252F30E0842F77
:1008E00090E0821B930B541710F0CF960895019758
:1008F0000895FC01918D828D981761F0A28DAE0F45
:10090000BF2FB11D5D968C91928D9F5F9F73928FCB
:1009100090E008958FEF9FEF0895FC01918D828DF7
:10092000981731F0828DE80FF11D858D90E00895C4
:100930008FEF9FEF0895FC01918D228D892F90E01C
:10094000805C9F4F821B91098F739927089584EBD8
:1009500097E00E949B0421E0892B09F420E0822F7C
:100960000895FC01A48DA80FB92FB11DA35ABF4F44
:100970002C91848D90E001968F739927848FA6899E
:10098000B7892C93A089B1898C91837080648C93F2
:10099000938D848D981306C00288F389E02D8081A1
:1009A0008F7D80830895EF92FF920F931F93CF93D3
:1009B000DF93EC0181E0888F9B8D8C8D98131AC09A
:1009C000E889F989808185FF15C09FB7F894EE8981
:1009D000FF896083E889F9898081837080648083DE
:1009E0009FBF81E090E0DF91CF911F910F91FF9029
:1009F000EF900895F62E0B8D10E00F5F1F4F0F73D1
:100A00001127E02E8C8D8E110CC00FB607FCFACF8B
:100A1000E889F989808185FFF5CFCE010E94B10474
:100A2000F1CFEB8DEC0FFD2FF11DE35AFF4FF0825C
:100A30009FB7F8940B8FEA89FB8980818062CFCFC2
:100A4000CF93DF93EC01888D8823B9F0AA89BB8905
:100A5000E889F9898C9185FD03C0808186FD0DC0F0
:100A60000FB607FCF7CF8C9185FFF2CF808185FF11
:100A7000EDCFCE010E94B104E9CFDF91CF9108956F
:100A800080E090E0892B29F00E94A70481110E9448
:100A9000000080E090E0892B49F080E090E0892B15
:100AA00029F00E94000081110E94000080E090E087
:100AB000892B49F080E090E0892B29F00E9400000A
:100AC00081110E94000080E090E0892B49F080E0D5
:100AD00090E0892B29F00E94000081110C94000005
:100AE00008958FB7F894809151048FBF089561E005
:100AF000FC0184810E946D03809150048111109249
:100B0000500408958EBD00000DB407FEFDCF8EB5D4
:100B100008958FEF0C9482050F931F93CF93DF936B
:100B2000EC010E942E048B010E9489058F3F69F021
:100B30000E942E04601B710B6C177D07A8F380E0E8
:100B4000DF91CF911F910F91089581E0F9CF8CBD76
:100B50009DBD0895CF93DF93EC01809150048111E6
:100B600009C081E0809350048091810690918206B3
:100B70000E94A70560E08C81DF91CF910C946D03FA
:100B80008F929F92AF92BF92FF920F931F93CF933A
:100B9000DF93EC01F62E49015A018E81882389F0FA
:100BA0008F8198859C012F5F3F4F38872F8382303C
:100BB000924018F40E948905F3CFCE010E94770578
:100BC0001E82CE010E94AA058CE291E00E948C0553
:100BD0008F2D80640E94820508E110E0D501C401D8
:100BE000002E04C0B695A795979587950A94D2F7DD
:100BF0000E94820508501109083F8FEF180771F70E
:100C000085E9FF2021F028E087E8F2128FEF0E94AB
:100C1000820510E00E9489058A8787FF04C01F3F74
:100C200011F01F5FF7CFDF91CF911F910F91FF90D0
:100C3000BF90AF909F908F900895AF92BF92CF9248
:100C4000DF92EF92FF920F931F93CF93DF93EC010C
:100C50006901C801820F931F8130924050F58E8147
:100C6000882379F088819981AA81BB8184179507AF
:100C7000A607B70731F48F819885C816D90608F002
:100C800042C0488359836A837B838B85833039F0E4
:100C900089E0440F551F661F771F8A95D1F79A0187
:100CA000AB0161E1CE010E94C005882389F083E099
:100CB0008D83CE010E94770580E0DF91CF911F9157
:100CC0000F91FF90EF90DF90CF90BF90AF9008957D
:100CD0000E942E045B010E9489058A878F3F69F478
:100CE0000E942E046A197B096D327140A0F38FE0D7
:100CF0008D83CE010E947705DCCF8E3F89F4188664
:100D00001F8281E08E838F8198858C159D0550F41C
:100D10000E9489058F819885019698878F83F3CFEC
:100D20008DE0E6CF6701E00EF11E0E948905F60115
:100D300081936F01EE15FF05C1F78F819885080F2C
:100D4000191F18870F838985882319F00115124010
:100D5000A0F08E81882389F08F8198859C012F5F78
:100D60003F4F38872F838230924018F40E948905C4
:100D7000F3CFCE010E9477051E8281E09ECFCF92F5
:100D8000DF92EF92FF920F93CF93DF93EC01690113
:100D900082E1411551056105710599F08B8583301C
:100DA00039F089E0440F551F661F771F8A95D1F7E8
:100DB0009A01AB0168E1CE010E94C005882319F0B9
:100DC00084E08D832DC08EEF0E94820576018EEF28
:100DD000D81AF70181917F010E948205EC14FD046D
:100DE000C1F78FEF0E9482058FEF0E9482050E945B
:100DF00089058A878F71853071F4011116C0CE0183
:100E00000E94770581E0DF91CF910F91FF90EF90E5
:100E1000DF90CF90089581E18D83CE010E94770508
:100E2000CE010E94770580E0EECF88E592E00E9437
:100E30008C05811102C085E1C4CF20E030E0A9011A
:100E40006DE0CE010E94C005882311F084E1B9CF86
:100E50000E9489058111FACFD2CF0F93409153049C
:100E600050915404609155047091560441155105F8
:100E70006105710599F0082F21E834E080917F0425
:100E8000909180040E94BF06882349F01092530479
:100E900010925404109255041092560481E00F9160
:100EA00008950F93CF93C82F80915204811105C0EC
:100EB000C1E08C2FCF910F91089540910C02509179
:100EC0000D0260910E0270910F020C2F21E834E0A8
:100ED00080917F04909180040E94BF06811102C01E
:100EE000C0E0E7CFCC2321F381E00E942D078823C7
:100EF000B9F310925204DDCF8F929F92AF92BF92BE
:100F0000EF92FF920F931F93CF934B015C01C42F7D
:100F100080910C0290910D02A0910E02B0910F02EF
:100F200088159905AA05BB0551F181E00E9451077A
:100F300081110BC080E0CF911F910F91FF90EF9036
:100F4000BF90AF909F908F90089581E8E82E84E045
:100F5000F82E00E012E030E020E0B501A40180911D
:100F60007F04909180040E941D06882319F38092CB
:100F70000C0290920D02A0920E02B0920F024091CC
:100F800052044C2B4093520481E0D5CFCF93DF9392
:100F9000EC016E857F858889998941E00E947C07F4
:100FA000882351F08A8920E2829FC00111248F5743
:100FB0009B4FDF91CF91089590E080E0FACF8F9220
:100FC0009F92AF92BF92CF92DF92EF92FF92CF9318
:100FD00023E836E03093800420937F04882309F4CB
:100FE0006DC040E060E070E0CB010E947C078111A1
:100FF0000BC080E0CF91FF90EF90DF90CF90BF903B
:10100000AF909F908F90089580913F068F7789F7DA
:1010100080914B0690914C06A0914D06B0914E06E2
:1010200084369105A105B10520F3C0904706D09004
:101030004806E0904906F0904A06C114D104E10444
:10104000F104B9F240E0C701B6010E947C07882391
:1010500081F280918C0490918D048115924049F623
:10106000A0919104AA2329F260918F0470919004B9
:101070006115710509F4BDCF20918E04222309F476
:10108000B8CFA093A1062093930690E080E030E0D3
:10109000E1E0F0E0C82FAF01082E02C0440F551F59
:1010A0000A94E2F72417350769F041E0480F0196EA
:1010B0008930910579F740939C069BCFC12CD12CA8
:1010C0007601C0CF80939C062091970430919804BC
:1010D00050E040E02115310541F42091A504309104
:1010E000A6044091A7045091A8042093940630933D
:1010F0009506409396065093970646015701860E33
:10110000971EA11CB11C8092A2069092A306A092E9
:10111000A406B092A506E0919204F0919304F09396
:10112000A806E093A706B0E00E94052EDC01CB01E3
:10113000880D991DAA1DBB1D8093A9069093AA0630
:10114000A093AB06B093AC0625E0EE0FFF1F2A95E7
:10115000E1F7E150FE4FEF2FFF27E6958E0F9F1F1F
:10116000A11DB11D80939D0690939E06A0939F069E
:10117000B093A0068090940490909504B12CA12C7B
:101180008114910441F48090A1049090A204A09055
:10119000A304B090A404C81AD90AEA0AFB0AC80C2E
:1011A000D91CEA1CFB1C04C0F694E794D794C7949E
:1011B000CA95D2F7C0929806D0929906E0929A0604
:1011C000F0929B0685EFC8168FE0D806E104F10483
:1011D00028F48CE08093A60681E00CCF80E125EF17
:1011E000C2162FEFD206E104F104A0F38091AD0402
:1011F0009091AE04A091AF04B091B0048093A90681
:101200009093AA06A093AB06B093AC0680E2E2CF1F
:101210004F925F926F927F928F929F92AF92BF9206
:10122000CF92DF92EF92FF920F931F93CF93DF93B2
:10123000EC01423051056105710590F480E0DF91C9
:10124000CF911F910F91FF90EF90DF90CF90BF90C3
:10125000AF909F908F907F906F905F904F90089588
:1012600089859A85AB85BC850196A11DB11D841722
:101270009507A607B70710F3CB88DC88ED88FE88B2
:101280008F89803109F042C0BB27A72F962F852F69
:10129000480159012A013B01C80ED91EEA1EFB1E56
:1012A00080910C0290910D02A0910E02B0910F025C
:1012B000C816D906EA06FB0699F58F898031C1F573
:1012C000B301A201552766277727440F551F4F57B3
:1012D0005B4FFA01918280828091520481608093F9
:1012E00052048A89823080F08D819E81AF81B885D9
:1012F0008C0D9D1DAE1DBF1D80935304909354040F
:10130000A0935504B093560481E099CFDB01CA0144
:10131000E7E0B695A79597958795EA95D1F7B8CF69
:1013200040E0C701B6010E947C078111C6CF86CF7D
:10133000B301A2014F77552766277727440F551F22
:10134000440F551F4F575B4FFA0180829182A28252
:10135000B382C2CF8F929F92AF92BF92CF92DF9211
:10136000EF92FF920F931F93CF93DF93FC01818540
:101370009285A385B4850196A11DB11D841795079B
:10138000A607B70770F480E0DF91CF911F910F910E
:10139000FF90EF90DF90CF90BF90AF909F908F9095
:1013A000089583889488A588B6888789803189F5CF
:1013B000BB27A72F962F852FE9016A017B018F019B
:1013C000BC01CD01680D791D8A1D9B1D80900C020A
:1013D00090900D02A0900E02B0900F028616970614
:1013E000A806B90601F5F8018789803111F5DD24D9
:1013F000EE24FF24F601EE0FFF1FEF57FB4F808115
:101400009181B0E0A0E088839983AA83BB8381E0C7
:10141000BBCFDB01CA01C7E0B695A7959795879525
:10142000CA95D1F7C9CF40E00E947C078111DBCF7C
:10143000AACFE894C7F8DD24EE24FF24F601EE0FCE
:10144000FF1FEE0FFF1FEF57FB4F80819181A2819D
:10145000B381BF70D8CF4F925F926F927F92AF925D
:10146000BF92CF92DF92EF92FF920F931F93CF9391
:10147000DF9300D01F92CDB7DEB78C0149835A832A
:101480006B837C835901C12CD12C7601412C82E0E5
:10149000582E612C712C49815A816B817C819E016F
:1014A0002F5F3F4FC8010E94AA09882339F1F80134
:1014B0008585A301920104C0220F331F441F551FCD
:1014C0008A95D2F7DA01C901C80ED91EEA1EFB1EA1
:1014D00049815A816B817C818789803111F188EF44
:1014E0009FEFAFEFBFE0481759076A077B0798F2F5
:1014F000F501C082D182E282F38281E00F900F90E9
:101500000F900F90DF91CF911F910F91FF90EF906F
:10151000DF90CF90BF90AF907F906F905F904F9093
:10152000089588EF9FEFA0E0B0E0DDCFCF93DF9389
:10153000FC012581222321F080E0DF91CF910895E5
:10154000EC018091A606803159F582E08583178AE7
:10155000108E118E128E8091A7069091A806B0E091
:10156000A0E025E0880F991FAA1FBB1F2A95D1F77D
:10157000838B948BA58BB68B8FE896E09C8F8B8F9B
:1015800081E08C831E821F82188619861A861B862C
:101590001C861D861E861F86188A198A1A8ACDCF38
:1015A000803251F683E085834091A9065091AA06C6
:1015B0006091AB067091AC06478B508F618F728F34
:1015C0009F012D5E3F4F8FE896E00E942B0A81110C
:1015D000D3CFB2CF8F929F92AF92BF92CF92DF9232
:1015E000EF92FF920F931F93CF93DF93EC018D81C6
:1015F00081110EC080E0DF91CF911F910F91FF907C
:10160000EF90DF90CF90BF90AF909F908F90089514
:101610000B891C892D893E89041715072607370772
:1016200048F34A015B01823031F48A869B86AC869E
:10163000BD8681E0E0CF81149104A104B10449F496
:101640001E821F82188619861A861B861C861D8696
:10165000F0CF0A851B852C853D85EB8DFC8D85851E
:1016600090E00996B901A801415051096109710939
:10167000082E04C076956795579547950A94D2F73A
:1016800075016401E1E0CE1AD108E108F10804C057
:10169000F694E794D794C7948A95D2F7C416D506E2
:1016A000E606F70620F0012B022B032B11F58F899C
:1016B000988DA98DBA8D8E839F83A887B9878E0157
:1016C0000A5F1F4FC114D104E104F10409F4ADCF46
:1016D0004E815F816885798598018B8D9C8D0E94F4
:1016E000AA0991E0C91AD108E108F1088111EACFED
:1016F00081CFC41AD50AE60AF70AE1CF3F924F928A
:101700005F926F927F928F929F92AF92BF92CF9291
:10171000DF92EF92FF920F931F93CF93DF93CDB79A
:10172000DEB72C970FB6F894DEBF0FBECDBF5C01BD
:10173000DC015B968D909C905C9716964D905D9029
:101740006D907C901997411451046104710409F45F
:1017500068C0BFEF4B1A5B0A6B0A7B0A312CF4019D
:1017600081859285A385B4859C01AD012F5F3F4F94
:101770004F4F5F4F29873A874B875C877301620120
:101780001D821E821F821886F40181859285A385A1
:10179000B4852D813E814F815885281739074A0726
:1017A0005B0708F056C089859A85AB85BC858C158A
:1017B0009D05AE05BF0550F482E0C82ED12CE12C6A
:1017C000F12C92E0492E512C612C712C9E012F5F3F
:1017D0003F4FB701A601C4010E94AA098823C9F19D
:1017E00089819A81AB81BC81892B8A2B8B2B09F152
:1017F000260137019FEF491A590A690A790A2D8192
:101800003E814F8158852F5F3F4F4F4F5F4F2D8354
:101810003E834F8358873FEFC31AD30AE30AF30A84
:10182000B3CFF401408051806280738033243394BD
:1018300096CFC414D504E604F70409F70FEF1FEFA1
:101840002FEF3FE0B701A601C4010E9408098111F2
:1018500019C080E02C960FB6F894DEBF0FBECDBF46
:10186000DF91CF911F910F91FF90EF90DF90CF907C
:10187000BF90AF909F908F907F906F905F904F90B0
:101880003F900895D50116964D915D916D917C9193
:101890001997411551056105710539F097018601C8
:1018A000C4010E9408098823A1F2D5011696CD92A1
:1018B000DD92ED92FC921997332051F0D701C601C9
:1018C0000196A11DB11DF40180839183A283B3838E
:1018D000F5018789908DA18DB28D892B8A2B8B2B59
:1018E00039F48481C78AD08EE18EF28E8068848339
:1018F000F50184818062848381E0ACCF1F93CF9314
:10190000DF93FC012581222371F1162FEC018481E4
:1019100087FF1EC0CF010E94C607FC01892B19F169
:101920008D81823040F48B899C89AD89BE89848FFA
:10193000958FA68FB78F8F89988D938F828F8F8980
:10194000988DA98DBA8DB58BA48B8C818F778C8364
:10195000111103C08C818F7E8C83812FDF91CF91F9
:101960001F910C94510780E0DF91CF911F91089552
:10197000FF920F931F93CF93DF93EC018D81813002
:1019800041F090E080E0DF91CF911F910F91FF90A7
:1019900008958C8181FFF5CF82FD1BC000917F04EB
:1019A00010918004C8010E94AA050E948905F82EA2
:1019B000C8010E9477058FEFF812E3CF8C8185FF75
:1019C0001BC060E0CE010E947E0C8C818F7D8C83D9
:1019D000D8CF4B895C896D897E898A859B85AC854A
:1019E000BD8584179507A607B707C1F2CE010E94EF
:1019F000EA0A8111D3CFC5CF4091530450915404CA
:101A00006091550470915604452B462B472B21F0CD
:101A100080E00E942D07B5CF80618C832A853B85AD
:101A2000317080E092E0821B930BADCFCF93DF93B8
:101A3000EC0161E00E947E0C882311F01D8281E0A0
:101A4000DF91CF9108952F923F924F925F926F92C4
:101A50007F928F929F92AF92BF92CF92DF92EF923E
:101A6000FF920F931F93CF93DF9300D01F921F928B
:101A7000CDB7DEB77C015B01342E5D83DC011596AA
:101A80008C911597813009F0CEC014962C9021FED0
:101A9000CAC022FCB4C0C32CDD8022947FE0272280
:101AA0002094B22DB1702B2ED7011A964D915D91D5
:101AB0006D917C911D97C114D10409F428C15B96E6
:101AC0008D919C915C97FC0174807A948A019B01B2
:101AD00069E036952795179507956A95D1F7702295
:101AE0008A011170711020C001151105E9F41696D4
:101AF0004D915D916D917C9119974115510561054D
:101B0000710509F099C057968D919D910D90BC91EA
:101B1000A02D0097A105B10509F0B0C0C7010E9432
:101B20007E0B882309F47FC080E092E0801B910B3C
:101B300046018C159D0508F44C01D7015B964D912B
:101B40005C915C9716968D919D910D90BC91A02D06
:101B50000297A109B109FA01258504C0880F991FD0
:101B6000AA1FBB1F2A95D2F74685578560897189C0
:101B7000840F951FA61FB71F9C01AD01270D311DB6
:101B8000411D511D29013A01811432E0930609F0EB
:101B90007BC080910C0290910D02A0910E02B09139
:101BA0000F0284159505A605B70559F48FEF9FEF31
:101BB000DC0180930C0290930D02A0930E02B0936F
:101BC0000F02022D9501B301A20180917F04909133
:101BD00080040E94BF06882331F19EEFB91AC8180D
:101BE000D908F70182859385A485B585880D991D4F
:101BF000A11DB11D82879387A487B58755CFF701B3
:101C0000438954896589768982859385A485B585BC
:101C1000481759076A077B0709F43DCFC7010E949F
:101C2000EA0A811138CF81E090E0D70113969C93A6
:101C30008E93129780E007C09E012F5F3F4F0E9456
:101C4000AA09811102C090E079C089819A81AB8193
:101C5000BC81F701238D348DF901278948EF5FEFAF
:101C600060E070E0203121F048EF5FEF6FEF7FE040
:101C700084179507A607B70708F050CFF7018683AA
:101C80009783A087B18750CF0115110599F5D7012A
:101C90001A964D915D916D917C911D9753968D9102
:101CA0009D910D90BC91A02D481759076A077B079D
:101CB00008F181E00E945107882309F4B4CF4092D3
:101CC0000C0250920D0260920E0270920F028091EF
:101CD0005204816080935204C8018F579B4FD501F5
:101CE0009C01280D391DFC012E173F0759F04D911D
:101CF0004193FACF41E0C301B2010E947C078111F8
:101D0000EBCF91CF281B390BA20EB31E68CFF70182
:101D100083899489A589B68984179507A607B7078B
:101D200038F48481438B548B658B768B80688483F5
:101D3000F701848183FD1AC0832D9D810F900F9040
:101D40000F900F900F90DF91CF911F910F91FF9007
:101D5000EF90DF90CF90BF90AF909F908F907F904B
:101D60006F905F904F903F902F90089561E0C70172
:101D70000E947E0C882309F456CFDECFCF93DF93E9
:101D80001F92CDB7DEB7698341E050E0BE016F5FBF
:101D90007F4F0E94230D0F90DF91CF910895FC019A
:101DA000DB0112968D919C911397938382838EE42D
:101DB00092E09183808314968C9114978483159676
:101DC0008C911597858316964D915D916D917C91BF
:101DD000199746835783608771871A964D915D9155
:101DE0006D917C911D9742875387648775871E96F6
:101DF0004D915D916D917C91519746875787608B8E
:101E0000718B52968C915297828B53964D915D9126
:101E10006D917C915697438B548B658B768B57963F
:101E20004D915D916D917C915A97478B508F618F49
:101E3000728F5B968D919C91948F838F0895FC0196
:101E4000818D928D009719F061E00C947E0C0895BD
:101E5000DC015996ED91FC913097B9F08389948912
:101E6000A589B6894285538564857585841B950B44
:101E7000A60BB70B811520E89207A105B10538F034
:101E80008FEF9FE7A0E0B0E0089590E080E0089534
:101E9000DC0159968D919C91009739F0DC01ED9110
:101EA000FC910480F581E02D199490E080E0089584
:101EB000CF93DF93EC01E98DFA8D309749F481E0FF
:101EC00090E09B838A8390E080E0DF91CF9108953A
:101ED00013821282898D9A8D0E94230DE98DFA8DCD
:101EE00022813381232B59F7F0CFCF93DF931F92B9
:101EF000CDB7DEB76983DC01ED91FC910280F381FF
:101F0000E02D41E050E0BE016F5F7F4F19950F90CB
:101F1000DF91CF9108952F923F924F925F926F92EF
:101F20007F928F929F92AF92BF92CF92DF92EF9269
:101F3000FF920F931F93CF93DF9300D0CDB7DEB7FF
:101F4000FC018581811118C08FEF9FEF0F900F90DA
:101F50000F90DF91CF911F910F91FF90EF90DF9045
:101F6000CF90BF90AF909F908F907F906F905F9039
:101F70004F903F902F900895848180FFE5CF438953
:101F800054896589768982859385A485B585312CA8
:101F9000212C481759076A077B0719F0222423943C
:101FA000312C6F012101CE0101963C01DF01169613
:101FB000BB83AA834114510409F4C5C0F6014285CC
:101FC0005385648575854A01F1E09F22D6015B96B1
:101FD0008D919C915C978A019B01E9E0369527954C
:101FE00017950795EA95D1F71596EC91E230E9F54A
:101FF000FC01628D738D848D958D600F711F821F22
:10200000931FA12C22E0B22EA818B9084A145B0431
:1020100008F45201F601248126FD04C0A114F2E067
:10202000BF0671F400910C0210910D0220910E0276
:1020300030910F02061717072807390709F05EC00D
:1020400040E00E947C07882309F47ECFC4018F57AB
:102050009B4FD3019C012A0D3B1DFC012E173F070E
:1020600009F46CC041914D93F9CFDC011496BC90FA
:10207000BA94B0228114910479F4B1100DC0452BAB
:10208000462B472B69F5F6018789908DA18DB28D7E
:1020900086839783A087B187D6015B96ED91FC91EB
:1020A0005C9716966D917D918D919C9119976250D8
:1020B000710981099109258504C0660F771F881F62
:1020C000991F2A95D2F70685178520893189600FD7
:1020D000711F821F931F6B0D711D811D911D91CF6B
:1020E000D60116964D915D916D917C9119972A813B
:1020F0003B810E94AA098111CFCF26CF73018501B0
:102100009401AB01BC0180917F04909180040E94F6
:102110001D06882309F418CF6A0C7B1CF601828502
:102120009385A485B5858A0D9B1DA11DB11D828750
:102130009387A487B5874A185B083CCF281B390BC7
:10214000620E731EEBCF2A94232809F0FDCE8981FD
:1021500090E0FCCEFC01818D928D009711F00C94E3
:102160008B0F8FEF9FEF0895CF92DF92EF92FF9248
:102170000F931F93CF93DF938C01D0E0C0E00E94B8
:102180002E0460935D0870935E0880935F089093BF
:10219000600885E598E00E94AA1097FF25C00E947C
:1021A0002E04C0905D08D0905E08E0905F08F0902B
:1021B00060086C197D098E099F09C0905908D0905C
:1021C0005A08E0905B08F0905C086C157D058E0560
:1021D0009F05F8F2CE01DF91CF911F910F91FF90F3
:1021E000EF90DF90CF9008958A30910599F3F80130
:1021F00081938F012196CE31D10509F6EBCF0F9354
:102200001F93CF93DF93EC01898D9A8D10E000E04E
:10221000009799F00E948B0F8C010F3F100769F017
:10222000898D9A8DFC014285538564857585415061
:102230005109610971090E94EA0AC801DF91CF9131
:102240001F910F91089508952091DF03260F3327E2
:10225000331F21323105ECF420912804FC0190E079
:1022600080E0243069F082E00895A091DF0321919D
:10227000AC0141545C4FA40FB52FB11D2C930196B6
:10228000861798F38091DF03680F6093DF0380E087
:10229000089581E008951092280481E08093270436
:1022A0001092020461E084E10E946D0361E085E127
:1022B0000E946D03E9EBF0E080818E7F8083808156
:1022C0008D7F808388E48093B80085E48093BC0090
:1022D0000895CF93DF9391E09093BE038823B9F0E4
:1022E000C091B800D091BA008091BC008A7B8093E5
:1022F000BC0060E084E10E946D0360E085E10E9423
:102300006D030E944B11D093BA00C093B800DF91C7
:10231000CF9108950895E0915E0480915D04E817DF
:1023200030F4F0E0E256FC4F808190E008958FEFAA
:102330009FEF089590915E0480915D042FEF3FEF31
:10234000981748F4E92FF0E0E256FC4F208130E086
:102350009F5F90935E04C901089580915D04909100
:102360005E04891B990B0895CF92DF92EF92FF9242
:102370000F931F93CF93DF937C01CB018A012091B0
:102380002E04222389F0EB016B01C40ED51ECC155F
:10239000DD0569F06991D701ED91FC910190F08123
:1023A000E02DC7011995F3CF642F0E942411C801B5
:1023B000DF91CF911F910F91FF90EF90DF90CF9021
:1023C0000895CF93DF931F92CDB7DEB76983209135
:1023D0002E042223F9F020915B04203258F021E0F2
:1023E00030E0FC013383228390E080E00F90DF91A6
:1023F000CF91089580915C04E82FF0E0E15DFB4F00
:10240000998190838F5F80935C0480935B0481E06B
:1024100090E0ECCF61E0CE0101960E942411F7CF4D
:10242000CF92DF92EF92FF920F931F93CF93DF93A0
:10243000FC01C48121E020932E04C0934F0410922C
:102440005C0410925B048385682B8CEC96E00E9400
:10245000E111D0915B04D13208F092C00E94D70301
:102460006B017C0180912804811165C082E080931A
:10247000280481E0809327048FEF80932604109234
:102480002504D0932404AFE2B4E0E4E0F4E080E07B
:10249000D81385C01092030480910304CC0FC82B7D
:1024A000C093030480910204813009F07CC0109233
:1024B00002040E94D7036B017C0180910304809386
:1024C000BB0080912A0490912B04A0912C04B09120
:1024D0002D04892B8A2B8B2B99F00E94D703009116
:1024E0002A0410912B0420912C0430912D046C1996
:1024F0007D098E099F090617170728073907E0F19C
:102500008091BC0083FDD9CF85EC8093BC000E94F4
:10251000D7036B017C0180912804823009F445C007
:10252000809126048F3F61F180912604803241F131
:102530008091260425C080912A0490912B04A091BB
:102540002C04B0912D04892B8A2B8B2B09F48ACF74
:102550000E94D70300912A0410912B0420912C048F
:1025600030912D046C197D098E099F0906171707F4
:102570002807390708F076CF809129040E94691155
:1025800010925C0410925B0410922E04DF91CF91A4
:102590001F910F91FF90EF90DF90CF9008959D9144
:1025A00091938F5F75CF85EEB0CF80912A04909183
:1025B0002B04A0912C04B0912D04892B8A2B8B2BFA
:1025C00009F4A9CF0E94D70300912A0410912B048B
:1025D00020912C0430912D046C197D098E099F09DE
:1025E000061717072807390708F095CFC5CF90E0E1
:1025F00080E0089587FF0AC09CE0980F923030F089
:102600008D3F21F0803F18F4807F089580E0089589
:10261000982F9F7E282F2F7C203839F0803E29F07C
:1026200081E0903C19F080E0089581E00895DC019C
:102630008D919C91DC01ED91FC910190F081E02D58
:1026400019941F93CF93DF932150203118F587FF02
:1026500021C0D42F162FC82F622F682B80910E0710
:1026600090910F070E941713612F6F7780910E07CB
:1026700090910F070E941713CF7EC03C59F06D2F29
:102680006F7780910E0790910F07DF91CF911F9187
:102690000C941713DF91CF911F910895262F4FE7C8
:1026A000682F80E90C9421136D3F48F46A3F10F4C1
:1026B000683F39F4FC01808191810C9417136E3FBF
:1026C000C8F70895813E10F40C942113883F28F038
:1026D000682F8EE097E00C9454130895673521F429
:1026E00061E08BE30C946D030895DC01ED91FD91A5
:1026F0008081ED91FD919081ED91FD916C916370E0
:102700008E2309F064609F2309F06860E2E9F3E139
:10271000E60FF11D659565956D936D917D918D9198
:102720009D91099423C01AC012C016C010C01EC0CB
:1027300009C014C013C006C019C009C00DC007C02D
:102740000DC014C062507040804090400BC061507A
:1027500070408040904006C06E5F01C06F5F7F4F49
:102760008F4F9F4F9E938E937E936E93089580918B
:10277000D8069091D9060C9475138091DA06909141
:10278000DB060C9475138091DC069091DD060C94A9
:1027900075138091DE069091DF060C94751380917D
:1027A000E0069091E1060C9475138091E2069091F9
:1027B000E3060C9475138F929F92AF92BF92CF92C3
:1027C000DF92EF92FF920F931F93CF93DF9300D08E
:1027D0001F92CDB7DEB7FC018581813091F080E09A
:1027E0000F900F900F900F90DF91CF911F910F914D
:1027F000FF90EF90DF90CF90BF90AF909F908F9021
:102800000895848181FFEBCF83899489A589B68956
:10281000892B8A2B8B2B09F45FC07F0140E050E0AD
:10282000BA01CF010E94EA0A8823C9F2F701C38CDA
:10283000D48C8788908CA18CB28C82E090E0A0E050
:10284000B0E0F60180839183A283B3839E012F5F62
:102850003F4FB501A401C6010E94AA09882309F4CB
:10286000BECF00E010E09801B501A401C6010E94AE
:102870000809882309F4B3CF89809A80AB80BC8093
:10288000F6018789803119F188EF9FEFAFEFBFE044
:1028900088169906AA06BB06C8F2F701178A108E99
:1028A000118E128E138A148A158A168A8481806882
:1028B000848361E0C7010E947E0C882309F48FCFD6
:1028C00040E050E0BA01C7010E94EA0A89CF88EFD0
:1028D0009FEFA0E0B0E0DCCF81E082CFCF92DF922B
:1028E000EF92FF921F93CF93DF93EC0180E2689FFA
:1028F000F0011124EF57FB4F9385917161F0842F04
:10290000827449F080E0DF91CF911F91FF90EF90AA
:10291000DF90CF900895142F6A8B80910C029091D4
:102920000D02A0910E02B0910F028E879F87A88B97
:10293000B98BC488D588F12CE12C7601DD24CC2418
:10294000CF8AD88EE98EFA8E828D938DB0E0A0E08A
:10295000AC01BD014C295D296E297F294F8B588F11
:10296000698F7A8F83858871B1F4848D958DA68D5A
:10297000B78D8B8B9C8BAD8BBE8B81E08D831F7055
:102980001C831E821F82188619861A861B861C8647
:102990001D8681E0B8CF803109F0B4CF9E012D5E55
:1029A0003F4F8B8D9C8D0E942B0A882309F4AACF60
:1029B00084E0E4CF0F931F93CF938C01C62F0E9426
:1029C00010126C2F6460C8010E9410126C2F6B7F74
:1029D000C8010E94101283EC90E00197F1F7CF91AB
:1029E0001F910F9108950F931F93CF93DF938C0145
:1029F000D62FC42F607F642B0E94DA1480E1D89F09
:102A0000B00111246C2BC801DF91CF911F910F9160
:102A10000C94DA1440E062E08CE798E00E94F31432
:102A20008BE39FE10197F1F70895CF93DF9300D0F7
:102A300000D01F921F92CDB7DEB798E0E0E3F2E03E
:102A4000DE01119601900D929A95E1F7909185081B
:102A5000961710F46FEF690F262F30E0220F331F07
:102A600041E050E04C0F5D1F240F351FF9016081DC
:102A7000680F606840E08CE798E028960FB6F894FD
:102A8000DEBF0FBECDBFDF91CF910C94F31441E0B8
:102A90000E94F31481E090E0089562E080E00E94DB
:102AA000151560E28CE798E00C94471580916E084C
:102AB00090916F08009761F00E94160D80916E084A
:102AC00090916F080E941B2F10926F0810926E0851
:102AD0000895FB0101900020E9F73197AF01461BF3
:102AE000570BDC01ED91FC910280F381E02D1994EC
:102AF0008F929F92AF92BF92EF92FF920F931F938C
:102B0000CF93DF93CDB7DEB7A1970FB6F894DEBFB2
:102B10000FBECDBF7C01FA01CB0119A2223008F40F
:102B20002AE08E010F5D1F4F822E912CB12CA12C1B
:102B3000BF01A50194010E94552EF901CA016A3016
:102B40000CF5605DD8016E938D01232B242B252B72
:102B500079F790E080E0109721F0BD01C7010E9455
:102B60006915A1960FB6F894DEBF0FBECDBFDF91F9
:102B7000CF911F910F91FF90EF90BF90AF909F90DA
:102B80008F900895695CDECFCF92DF92EF92FF9233
:102B90000F931F93CF93DF936B01770FEE08FF081E
:102BA000F7FE1FC0EC01E881F9810190F081E02D72
:102BB0006DE219958C0144275527BA014C195D091E
:102BC0006E097F092AE0CE010E947815800F911FBF
:102BD000DF91CF911F910F91FF90EF90DF90CF90F9
:102BE00008952AE0B701A601DF91CF911F910F91BF
:102BF000FF90EF90DF90CF900C9478150C946915AE
:102C00003F924F925F926F927F928F929F92AF927C
:102C1000BF92CF92DF92EF92FF920F931F93CF93C9
:102C2000DF9300D000D000D01F921F92CDB7DEB747
:102C30007C01DC0115968C91811115C0FE01319645
:102C4000CE010C966F0130E23193E817F907E1F7F6
:102C5000DA0130E087E09D91B92E992329F19E3267
:102C600039F48A3011F480E0DAC038E08AE0F3CF3A
:102C7000E0EDF1E04491442321F031969413FACF32
:102C8000F2CF831780F34FED490F4E3560F74FE9D0
:102C9000490F4A3118F440EEB42EB90EF601E30F95
:102CA000F11DB0823F5FD7CF89818032E1F2322EB1
:102CB0008B01FB01838D948DD7015C969C938E9341
:102CC0005B971682178210861186128613861486E9
:102CD0001586F80182859385A485B5854389548935
:102CE0006589768984179507A607B70708F04DC050
:102CF00025E0B695A795979587952A95D1F7F82F52
:102D0000FF70AF2ED80115968C91823008F4ABCFAE
:102D1000C8010E948B0F97FDA6CFF801828593858D
:102D2000A485B5854F96A11DB11D82879387A48781
:102D3000B587F0E2AF9EB00111246F577B4F61154C
:102D4000710509F490CFDB018C91882341F0853E19
:102D500009F058C0BB2029F0BB24B394BACFB110FE
:102D60000EC0F701A28A80910C0290910D02A091F1
:102D70000E02B0910F0286879787A08BB18BDB0183
:102D80008C918111E9CFBB24B394832D8271823160
:102D900009F069CFBB2009F45AC0C7010E94C607D9
:102DA000009709F460CF20E2FC0111922A95E9F71F
:102DB0002BE0F601DC0101900D922A95E1F721E26A
:102DC00038E2DC0151963C932E93509740E058E056
:102DD0001F965C934E931E9753963C932E93529757
:102DE00059963C932E93589757965C934E935697CB
:102DF00081E00E945107882309F435CF432DF70164
:102E000062890AC04BE050E0C6010E94A42F892BC2
:102E100009F05FCF432D6A2DC7010E946E142B96D7
:102E20000FB6F894DEBF0FBECDBFDF91CF911F91DB
:102E30000F91FF90EF90DF90CF90BF90AF909F9059
:102E40008F907F906F905F904F903F900895F80122
:102E50008581823009F407CFC8010E947E0B882348
:102E600009F401CFD8015B96ED91FC915C97169621
:102E70008D909D90AD90BC901997B2E08B1A9108FF
:102E8000A108B108858504C0880C991CAA1CBB1C2C
:102E90008A95D2F786859785A089B189880E991E73
:102EA000AA1EBB1E848124013501480E511C611CE1
:102EB000711C84149504A604B70409F1E1E04E1ACC
:102EC00051086108710881E00E945107882309F4C4
:102ED000CACEE1E8F4E0119281E896E08E179F07F0
:102EE000D1F740920C0250920D0260920E02709245
:102EF0000F0280915204816080935204DACFD8018E
:102F00005B96ED91FC91258580E092E0A0E0B0E039
:102F100004C0880F991FAA1FBB1F2A95D2F7F8017A
:102F20004389548965897689840F951FA61FB71F29
:102F3000838B948BA58BB68BD70152961C9281E81C
:102F400094E031CF4F925F926F927F928F929F92D7
:102F5000AF92BF92CF92DF92EF92FF920F931F93A7
:102F6000CF93DF93CDB7DEB7C754D1090FB6F8942E
:102F7000DEBF0FBECDBF5C013B0119A218A28EE4DB
:102F800092E09F8F8E8F1BA21C821B829A83898363
:102F90001E8210E000E06E018EE1C80ED11C8DEAA9
:102FA000E82E86E0F82EF501E00FF11F80818F32C8
:102FB00011F40F5F1F4FD501A00FB11FFE01FB964B
:102FC00090E080E04F012D912F3249F0222339F01B
:102FD0000F5F1F4F019621938C309105A1F7880D4B
:102FE000991DFC011082F501E00FF11F80818F32E5
:102FF00011F40F5F1F4FF501E00FF11F408041E01A
:10300000411040E030E020E0B401C701F301199520
:10301000582E81111FC0FDEAEF16F6E0FF0699F564
:10302000512C852DC95BDF4F0FB6F894DEBF0FBE64
:10303000CDBFDF91CF911F910F91FF90EF90DF9067
:10304000CF90BF90AF909F908F907F906F905F9048
:103050004F900895442091F021E0A401B701C601EA
:103060000E940016982E8DEAE81686E0F80679F0A0
:10307000C7010E94160D91100FC0D2CF9DEAE9162C
:1030800096E0F90671F2C7010E94160DCACF992089
:1030900039F2FE0131967F019E2D8F2D7601C92ECA
:1030A000D82E81CFCF93DF93CDB7DEB76D970FB614
:1030B000F894DEBF0FBECDBF442399F1AB01BC0134
:1030C0001C821B828EE492E09A8389831E8222E016
:1030D000CE0101960E94001681110EC090E081E0A1
:1030E000911101C080E06D960FB6F894DEBF0FBE5F
:1030F000CDBFDF91CF910895CE0101960E94DB13E1
:10310000882361F3CE0101960E94C607009731F330
:1031100025EEFC0120831E8281E00E945107982F3A
:10312000DECF81E0E0CF1F93CF93DF93CDB7DEB743
:103130006D970FB6F894DEBF0FBECDBFAB011C82FA
:103140001B822EE432E03A8329831E8221E0BC01F7
:10315000CE0101960E94001611E081110CC010E012
:10316000812F6D960FB6F894DEBF0FBECDBFDF91F5
:10317000CF911F910895CE0101960E94160DF0CFB8
:10318000EF92FF920F931F93CF93DF93EC017B019C
:103190008A011B821A8288EE93E0A0E0B0E08C8363
:1031A0009D83AE83BF838CE692E0998388838DE113
:1031B00090E00E947F2E9A8F898F009779F02DE101
:1031C000F701DC0101900D922A95E1F74CE050E007
:1031D000B801CE010C960E94BC2F188EDF91CF91C2
:1031E0001F910F91FF90EF9008952F923F924F9271
:1031F0005F926F927F928F929F92AF92BF92CF9287
:10320000DF92EF92FF920F931F93CF93DF93CDB78F
:10321000DEB7C556D1090FB6F894DEBF0FBECDBFDD
:103220005C013B01A6964FAFA69719A218A28EE4A7
:1032300092E09F8F8E8F1BA21C821B829A838983B0
:103240001E824E018EE1880E911CC4010E94960AD6
:103250008301FE0131967F0124013E2E2F2C6FE267
:1032600070E0C8010E94B12F009709F458C0F8011E
:1032700020812F3269F40F5F1F4F9E2D8F2D720119
:10328000492E582E942D852D2701E92EF82EE7CFB3
:10329000801B8D3008F08CE0C82ED12CA601B8011F
:1032A000CE01885A9F4F0E94BC2FE8E5F0E0EC0F5A
:1032B000FD1FEC0DFD1D1082C7010E94160D21E0BF
:1032C000AE01485A5F4FB201C7010E94001681113A
:1032D00020C01EAE1DAE8EE492E09CAF8BAF219657
:1032E0001FAE219710E000E0060D171DF801808148
:1032F00081111DC0BE01655C7F4F832D922D0E9400
:10330000CF0E46E852E0632D722DC5010E94C01811
:103310002CC00C0D1D1DC2010E94160DB3CF061945
:103320001709B201CE01CB960E94CF0EDDCF19A2B4
:1033300018A28EE492E09F8F8E8F1BA221968FADF4
:10334000219781112DC0F5011382128288EE93E03E
:10335000A0E0B0E084839583A683B7838CE692E0F7
:1033600091838083128E118E1486C501CB59DF4F55
:103370000FB6F894DEBF0FBECDBFDF91CF911F9186
:103380000F91FF90EF90DF90CF90BF90AF909F9004
:103390008F907F906F905F904F903F902F90089507
:1033A000A6962FADA697A801BE01655C7F4FC4010C
:1033B0000E940016882339F2CE01CB960E94160D8A
:1033C000A6968FADA6978670863039F449A95AA97A
:1033D0006BA97CA9C4010E94EA0AB401832D922D35
:1033E0000E94CF0EA8018FCF0F931F93CF93DF932F
:1033F000CDB7DEB7A8970FB6F894DEBF0FBECDBF2E
:10340000809127028F93809126028F9380912902C9
:103410008F93809128028F9388E892E09F938F93F7
:103420008E01045E1F4F1F930F930E94CB2F63E901
:1034300078E1C8010E94A2170FB6F894DEBF0FBE54
:10344000CDBF882329F062E578E1C8010E94A21768
:1034500047E1B801CE0101960E94F518CE01019610
:103460000E94B4010E94EB01882309F457C04091E7
:1034700068045091690460916A0470916B042AE0B9
:1034800085E598E00E94781563E972E085E598E0AB
:103490000E94FE15409160045091610460916204A5
:1034A000709163042AE085E598E00E94781565E94B
:1034B00072E085E598E00E9469150E9456150E9409
:1034C0000A1568E972E08CE798E00E94FE1564E650
:1034D00070E080E090E00E94FC0360E080E00E94E9
:1034E000151566EB72E08CE798E00E94FE1560E02F
:1034F00088E00E94151560912802709129028CE7DE
:1035000098E00E94C415A8960FB6F894DEBF0FBECF
:10351000CDBFDF91CF911F910F9108950E940A15A1
:1035200065EA72E0D0CF85ED8093BC0080912A04DB
:1035300090912B04A0912C04B0912D040796A11D0D
:10354000B11D23E0B695A795979587952A95D1F754
:103550002091BC0024FD03C01092280408954091DE
:103560002A0450912B0460912C0470912D04452B5A
:10357000462B472B69F30097A105B10541F02AE2DC
:103580002A95F1F700C00197A109B109E1CF809117
:1035900029040C946911EF92FF920F931F93CF931C
:1035A000DF93CDB7DEB7AB970FB6F894DEBF0FBE93
:1035B000CDBF809123028F93809122028F9387EC5D
:1035C00092E09F938F937E018FE1E80EF11CFF92B2
:1035D000EF920E94CB2F41E0B7018E010F5F1F4F8A
:1035E000C8010E94F518C8010E94B4010E94EB01B5
:1035F0000F900F900F900F900F900F90882309F469
:1036000055C0C8010E94B41080E694E09F938F9348
:1036100088E694E09F938F9380ED92E09F938F9341
:103620001F930F930E94FB2F0E9456150FB6F8941C
:10363000DEBF0FBECDBF60E080E00E9415156AEFCF
:1036400072E08CE798E00E94FE1560E088E00E943E
:10365000151560912202709123028CE798E00E9478
:10366000C41562E080E00E94151510E000E0809132
:103670002202909123026FEF081719070CF060E205
:103680008CE798E00E9447150F5F1F4F043111052A
:1036900071F7AB960FB6F894DEBF0FBECDBFDF91CA
:1036A000CF911F910F91FF90EF9008950E940A15FE
:1036B00068ED72E08CE798E00E94FE1547E1B701E3
:1036C000C8010E94F518C8010E94B4010E94EB01D4
:1036D000882309F441C070E060E085E598E00E942D
:1036E000C41563E972E085E598E00E94FE1570E07C
:1036F00060E085E598E00E94C41565E972E085E523
:1037000098E00E9469150E9456150E94EB018823DB
:10371000D1F0C8010E94B41080E694E09F938F938B
:1037200088E694E09F938F9380ED92E09F938F9330
:103730001F930F930E94FB2F0E9456150FB6F8940B
:10374000DEBF0FBECDBF0E940A1568E972E08CE7AC
:1037500098E00E94FE156FCF0E940A1565EA72E09C
:10376000F6CFEF92FF920F931F93CF93DF93CDB7D6
:10377000DEB7AB970FB6F894DEBF0FBECDBF80911A
:1037800027028F93809126028F93809129028F9335
:10379000809128028F9388E892E09F938F937E0117
:1037A0002FE1E20EF11CFF92EF920E94CB2F41E03D
:1037B000B7018E010F5F1F4FC8010E94F518C801A5
:1037C0000E94B4010E94EB010FB6F894DEBF0FBE59
:1037D000CDBF8823E9F1C8010E94B41080E694E0CF
:1037E0009F938F9388E694E09F938F9380ED92E070
:1037F0009F938F931F930F930E94FB2F0E94561548
:103800000FB6F894DEBF0FBECDBF60E080E00E942F
:10381000151566EB72E08CE798E00E94FE1560E0FB
:1038200088E00E94151560912802709129028CE7AA
:1038300098E00E94C415AB960FB6F894DEBF0FBE99
:10384000CDBFDF91CF911F910F91FF90EF90089521
:103850000E940A1568ED72E08CE798E00E94FE1560
:1038600047E1B701C8010E94F518C8010E94B401E0
:103870000E94EB01882309F441C070E060E085E517
:1038800098E00E94C41563E972E085E598E00E9423
:10389000FE1570E060E085E598E00E94C41565E9DA
:1038A00072E085E598E00E9469150E9456150E9415
:1038B000EB018823D1F0C8010E94B41080E694E0A7
:1038C0009F938F9388E694E09F938F9380ED92E08F
:1038D0009F938F931F930F930E94FB2F0E94561567
:1038E0000FB6F894DEBF0FBECDBF0E940A1569E087
:1038F00073E08CE798E00E94FE1587CF0E940A15BE
:1039000065EA72E0F6CFCF92DF92EF92FF920F93CB
:103910001F93CF93DF93CDB7DEB7A8970FB6F89478
:10392000DEBF0FBECDBF082F162F673509F0EFC0E1
:1039300060E08BE30E946D038BE30E944403892BBC
:1039400009F0EBC21A3509F0C6C1809126029091A8
:1039500027020197449708F0BCC060E080E00E9415
:10396000151565E173E08CE798E00E94FE15609103
:103970002602709127028CE798E00E94C41564E645
:1039800070E080E090E00E94FC03809127028F931A
:10399000809126028F9387EC92E09F938F937E0114
:1039A0002CE1E20EF11CFF92EF920E94CB2F63E913
:1039B00078E1C7010E94A2170F900F900F900F900F
:1039C0000F900F90882329F062E578E1C7010E94EB
:1039D000A21747E1B701CE0101960E94F518CE016A
:1039E00001960E94B4010E94EB01882309F46EC184
:1039F000409168045091690460916A0470916B046D
:103A00002AE085E598E00E94781563E972E085E593
:103A100098E00E94FE15409160045091610460910D
:103A20006204709163042AE085E598E00E947815AD
:103A300065E972E085E598E00E9469150E945615D7
:103A40000E940A1568E972E08CE798E00E94FE1572
:103A500064E670E080E090E00E94FC0360E080E0BB
:103A60000E9415156AEF72E08CE798E00E94FE153F
:103A700060E088E00E941515609122027091230297
:103A80008CE798E00E94C41560E080E00E94151564
:103A90006BE273E08CE798E00E94FE1560E08EE038
:103AA0000E94151560912602709127028CE798E01C
:103AB0000E94C41564E670E080E090E00E94FC0380
:103AC000809126029091270201969093270280937D
:103AD00026028BE30E9444037C0181E0E816F10496
:103AE00009F0B6C2153509F08AC261E087E30E9489
:103AF0006D038091280290912902019689309105E9
:103B00000CF047C290932902809328025CC2693569
:103B100009F06BC061E087E30E946D0380919A0316
:103B200090919B03A0919C03B0919D0380936804A6
:103B300090936904A0936A04B0936B0480919603F8
:103B400090919703A0919803B0919903809360049A
:103B500090936104A0936204B093630480910A027D
:103B600090910B02909309028093080280910602C3
:103B700090910702909305028093040280910202C3
:103B80009091030290932502809324028091000279
:103B9000909101029093270280932602809153080E
:103BA00090915408909329028093280260E080E06D
:103BB0000E94151566EB72E08CE798E00E94FE15F6
:103BC00060E088E00E94151560912802709129023A
:103BD0008CE798E00E94C415809128026DE0855B17
:103BE0000E944E130E944D15A7CE683509F0A4CE51
:103BF00060E087E30E946D036DE088E50E944E134C
:103C00008BE30E944403019781F4809168049091B2
:103C10006904A0916A04B0916B0480939A03909315
:103C20009B03A0939C03B0939D03809160049091AB
:103C30006104A0916204B091630480939603909311
:103C40009703A0939803B0939903809108029091F1
:103C5000090290930B0280930A02809104029091D2
:103C600005029093070280930602809124029091AE
:103C70002502909303028093020280912602909184
:103C80002702909301028093000280912802909174
:103C90002902909354088093530860E080E00E94CA
:103CA00015156AEF72E08CE798E00E94FE1560E05F
:103CB00088E00E94151560912202709123028CE722
:103CC00098E00E94C4150E94CB1A36CE0E940A15B5
:103CD00065EA72E0B9CE1C3409F581E090E090937A
:103CE0002902809328020E94F419809128026DE035
:103CF000855B0E944E1361E087E30E946D0381E0C3
:103D000090E090932902809328020E94B11B6DE0FD
:103D10008CE40E944E130E944D15DBCE1D3409F039
:103D200013C282E090E090932902809328020E94BF
:103D3000F419809128026DE0855B0E944E1361E0CA
:103D400087E30E946D0382E090E0909329028093C4
:103D500028020E94B11B6DE08DE4DBCF83E090E090
:103D600090932902809328020E94F41980912802DE
:103D70006DE0855B0E944E1361E087E30E946D0356
:103D800083E090E090932902809328020E94B11B67
:103D90006DE08EE4BECF1035E9F485E090E09093BD
:103DA0002902809328020E94F419809128026DE074
:103DB000855B0E944E1361E087E30E946D0385E0FE
:103DC00090E090932902809328020E94B11B6DE03D
:103DD00080E59FCF1135E9F486E090E090932902C9
:103DE000809328020E94F419809128026DE0855B7F
:103DF0000E944E1361E087E30E946D0386E090E02D
:103E000090932902809328020E94B11B6DE081E506
:103E100080CF1235E9F487E090E0909329028093F7
:103E200028020E94F419809128026DE0855B0E94AF
:103E30004E1361E087E30E946D0387E090E090936A
:103E40002902809328020E94B11B6DE082E561CFB8
:103E50001335E9F488E090E09093290280932802DA
:103E60000E94F419809128026DE0855B0E944E1338
:103E700061E087E30E946D0388E090E0909329025F
:103E8000809328020E94B11B6DE083E542CF153577
:103E900001F580912602909127020196813021E060
:103EA000920764F4909327028093260287E30E948E
:103EB00044030197D9F40E94B11B0BCE81E090E03E
:103EC00090932702809326029093250280932402E8
:103ED000EDCF163511F580912602909127020197BA
:103EE00018161906FCF280E091E0EACF60E080E06D
:103EF0000E94151561E473E08CE798E00E94FE15BE
:103F000060E088E00E9415156091260270912702FA
:103F10008CE798E00E94C415DCCD1C3409F4EBCE8C
:103F20001D3409F40CCF1E3409F426CF1F3409F4D4
:103F30001FC1103509F43FCF113509F45BCF12359D
:103F400009F477CF133509F493CF143509F0C1CDB7
:103F500061E087E30E946D03109268041092690487
:103F600010926A0410926B04109260041092610423
:103F7000109262041092630460E080E00E941515C4
:103F800060E573E08CE798E00E94FE156DE084E543
:103F9000C0CEF0922902E0922802809126029091F0
:103FA00027020196813021E092072CF4909327029A
:103FB0008093260208C0F0922702E0922602F09237
:103FC0002502E09224020E94B11B809128026DE03C
:103FD000855B0E944E130E944D15013009F46DC09F
:103FE000A8960FB6F894DEBF0FBECDBFDF91CF917C
:103FF0001F910F91FF90EF90DF90CF9008951635AD
:1040000039F561E087E30E946D0380912802909169
:1040100029020197181619060CF474CD88E090E077
:104020009093290280932802809126029091270282
:104030000197181619060CF4B9CF80E091E090931F
:104040002702809326029093250280932402BBCFFF
:10405000013031F68CED810F803278F540916804A3
:104060005091690460916A0470916B04812F8452AD
:10407000990B9C0181E090E0A0E0B0E0022E04C02A
:10408000880F991FAA1FBB1F0A94D2F76A017B01F0
:1040900004C0F694E794D794C7942A95D2F7C0FC4D
:1040A00041C0842B952BA62BB72B8093680490934B
:1040B0006904A0936A04B0936B048CEB810F813286
:1040C00008F08ECF409160045091610460916204C9
:1040D00070916304812F8454990B9C0181E090E0DE
:1040E000A0E0B0E0022E04C0880F991FAA1FBB1FDA
:1040F0000A94D2F76A017B0104C0F694E794D7943E
:10410000C7942A95D2F7C0FC16C0842B952BA62BFA
:10411000B72B8093600490936104A0936204B093E2
:1041200063045ECF80959095A095B09584239523E8
:10413000A623B723BACF80959095A095B0958423F8
:104140009523A623B723E5CF1E3409F407CE1F34E9
:1041500009F021CE84E090E0909329028093280218
:104160000E94F419809128026DE0855B0E944E1335
:1041700061E087E30E946D0384E090E09093290260
:10418000809328020E94B11B6DE08FE4C2CD1F9284
:104190000F920FB60F9211242F933F938F939F93FB
:1041A000AF93BF938091770490917804A0917904A4
:1041B000B0917A043091760423E0230F2D3758F51F
:1041C0000196A11DB11D20937604809377049093EE
:1041D0007804A0937904B0937A0480917B04909141
:1041E0007C04A0917D04B0917E040196A11DB11DB7
:1041F00080937B0490937C04A0937D04B0937E0411
:10420000BF91AF919F918F913F912F910F900FBED2
:104210000F901F90189526E8230F0296A11DB11D3F
:10422000D2CF1F920F920FB60F9211240BB60F929E
:104230002F933F934F935F936F937F938F939F93AE
:10424000AF93BF93EF93FF93E0911E02F0911F0293
:104250001995FF91EF91BF91AF919F918F917F91B0
:104260006F915F914F913F912F910F900BBE0F90E7
:104270000FBE0F901F9018951F920F920FB60F92BE
:1042800011240BB60F922F933F934F935F936F932D
:104290007F938F939F93AF93BF93EF93FF93E0919F
:1042A0001C02F0911D021995FF91EF91BF91AF9102
:1042B0009F918F917F916F915F914F913F912F913E
:1042C0000F900BBE0F900FBE0F901F9018951F926E
:1042D0000F920FB60F9211240BB60F922F933F93AC
:1042E0004F935F936F937F938F939F93AF93BF93FE
:1042F000EF93FF93E0911202F09113021995FF9151
:10430000EF91BF91AF919F918F917F916F915F914D
:104310004F913F912F910F900BBE0F900FBE0F90BA
:104320001F9018951F920F920FB60F9211240BB683
:104330000F922F933F934F935F936F937F938F933E
:104340009F93AF93BF93EF93FF93E0911002F0918F
:1043500011021995FF91EF91BF91AF919F918F91AC
:104360007F916F915F914F913F912F910F900BBE75
:104370000F900FBE0F901F9018951F920F920FB6BF
:104380000F9211240BB60F922F933F934F935F938D
:104390006F937F938F939F93AF93BF93EF93FF930D
:1043A000E0911A02F0911B021995FF91EF91BF91D4
:1043B000AF919F918F917F916F915F914F913F91BD
:1043C0002F910F900BBE0F900FBE0F901F9018955E
:1043D0001F920F920FB60F9211240BB60F922F93CC
:1043E0003F934F935F936F937F938F939F93AF937D
:1043F000BF93EF93FF93E0911802F0911902199582
:10440000FF91EF91BF91AF919F918F917F916F91AC
:104410005F914F913F912F910F900BBE0F900FBE68
:104420000F901F9018951F920F920FB60F921124A4
:104430000BB60F922F933F934F935F936F937F939E
:104440008F939F93AF93BF93EF93FF93E0911602E7
:10445000F09117021995FF91EF91BF91AF919F9144
:104460008F917F916F915F914F913F912F910F901D
:104470000BBE0F900FBE0F901F9018951F920F92BA
:104480000FB60F9211240BB60F922F933F934F93B9
:104490005F936F937F938F939F93AF93BF93EF93AC
:1044A000FF93E0911402F09115021995FF91EF919D
:1044B000BF91AF919F918F917F916F915F914F913C
:1044C0003F912F910F900BBE0F900FBE0F901F903A
:1044D00018951F920F920FB60F9211240BB60F92E0
:1044E0002F933F934F935F936F937F938F939F93FC
:1044F000AF93BF93EF93FF9384EB97E00E94B104D7
:10450000FF91EF91BF91AF919F918F917F916F91AB
:104510005F914F913F912F910F900BBE0F900FBE67
:104520000F901F9018951F920F920FB60F921124A3
:104530000BB60F922F938F939F93EF93FF93E0917E
:10454000C407F091C5078081E091CA07F091CB07BD
:1045500082FD1DC090818091CD078F5F8F73209168
:10456000CE07821741F0E091CD07F0E0EC54F84F10
:10457000958F8093CD07FF91EF919F918F912F9110
:104580000F900BBE0F900FBE0F901F90189580815B
:10459000F2CF1F920F920FB60F9211240BB60F920B
:1045A0002F933F934F935F936F937F938F939F933B
:1045B000AF93BF93EF93FF938091B900887F8036CC
:1045C00009F44DC008F040C0883209F4A9C028F5AC
:1045D000803109F49DC0C8F4882309F4FBC08830F9
:1045E00009F496C0FF91EF91BF91AF919F918F9188
:1045F0007F916F915F914F913F912F910F900BBEE3
:104600000F900FBE0F901F901895883109F488C045
:10461000803241F78093260414C0803409F49DC091
:1046200040F48033B9F38833E9F68093260485ECAF
:10463000B0C0803509F485C0883509F496C0883447
:1046400089F60E94931ACECF883909F48CC038F5C8
:10465000883729F050F4883611F0803719F683E056
:10466000809328041092010457C0883809F47BC055
:10467000803919F0803809F0B5CF8091010480327B
:1046800008F071C0E091010481E08E0F8093010475
:104690008091BB00F0E0EF51FC4F80833DC0803B38
:1046A00039F0E0F4803A09F479C0883A09F09ACFF9
:1046B00084E0809328041092E0031092DF03E091DD
:1046C0005904F0915A0419958091DF0381110FC0AC
:1046D00081E08093DF031092BF0309C0803C09F49E
:1046E000A6CF883C09F4A3CF883B09F07BCFE091AB
:1046F000E00381E08E0F8093E003F0E0E154FC4F93
:1047000080818093BB009091E0038091DF0329C0FA
:10471000809103048093BB0085EC8093BC0062CF42
:104720009091250480912404981758F5E091250470
:1047300081E08E0F80932504F0E0EC5FFB4F8081D9
:10474000E9CFE091250481E08E0F809325048091CC
:10475000BB00F0E0EC5FFB4F8083909125048091DB
:1047600024049817C8F285E8D8CFE091250481E0A9
:104770008E0F809325048091BB00F0E0EC5FFB4F2F
:1047800080838091270481115CCF81E080930204B3
:1047900084EA8093BC001092280424CF85EC809397
:1047A000BC001092280480910104803230F4E09122
:1047B0000104F0E0EF51FC4F10826091010470E0C1
:1047C000E0915704F091580481EE93E0199510920E
:1047D000010408CF1092260434CFCF93DF931092B8
:1047E000B7071092B60788EE93E0A0E0B0E08093A0
:1047F000B8079093B907A093BA07B093BB072CE30F
:1048000032E03093B5072093B40725EC30E03093C5
:10481000C1072093C00724EC30E03093C3072093F6
:10482000C20720EC30E03093C5072093C40721EC89
:1048300030E03093C7072093C60722EC30E0309376
:10484000C9072093C80726EC30E03093CB072093AC
:10485000CA071092CD071092CE071092CF07109280
:10486000D00720E5209381061092820610928806D8
:104870001092890610928C0610928E0642E050E04B
:1048800060E070E040938F0650939006609391062D
:10489000709392061092A6061092B0061092AF0680
:1048A0002EE432E03093AE062093AD061092B206AD
:1048B0001092CF061092CE068093D0069093D10628
:1048C000A093D206B093D3068AE592E09093CD06EA
:1048D0008093CC0610927F0810927E088EE792E0BB
:1048E00090937D0880937C0887E28093800884E120
:1048F0008093840884E0809385081092860888E07D
:104900008093870862E08AE00E949B0362E08BE06C
:104910000E949B03E4ECF2E0E491F0E0EE0FFF1F55
:10492000E056FD4FA591B491B0937108A093700823
:10493000E4E6F2E0449140937408E5ECF2E0E4919F
:10494000F0E0EE0FFF1FE056FD4FC591D491D093DC
:104950007308C0937208E5E6F2E0E491E09375080D
:1049600010927708109278081092790810927A08BD
:104970002BE33FE1C9010197F1F79C91842F892333
:1049800091E009F490E08881E82309F09260909327
:10499000760810927B08109258081092570888EEFB
:1049A00093E0A0E0B0E08093590890935A08A09358
:1049B0005B08B0935C088CE692E090935608809375
:1049C000550810926F0810926E081092610880913D
:1049D000280290912902909354088093530884EB05
:1049E00097E090935208809351081092E506109238
:1049F000E4061092E7061092E6061092E90610927D
:104A0000E8061092EB061092EA061092ED0610925C
:104A1000EC061092EF061092EE061092F10610923C
:104A2000F0061092F3061092F2061092F50610921C
:104A3000F4061092F7061092F6061092F9061092FC
:104A4000F8061092FB061092FA061092FD061092DC
:104A5000FC061092FF061092FE06109201071092BB
:104A60000007109203071092020710920507109298
:104A70000407109207071092060710920907109278
:104A8000080710920B0710920A0710920D07109258
:104A90000C0781E598E090930F0780930E07109222
:104AA0001007109211071092120710921707109218
:104AB000160710921907109218078FEF9FEF909327
:104AC0001B0780931A0790931D0780931C0783E0B0
:104AD00080931E0710921F07109220071092210743
:104AE000109222071092A307E3E2F7E080E8DF01CB
:104AF0001D928A95E9F71092A6071092A7071092C7
:104B0000A8071092A9071092AA071092AB0710925B
:104B1000AC071092AD071092AE071092AF0710923B
:104B2000B0071092B1071092B2071092B307DF914D
:104B3000CF910895CF93DF93CDB7DEB72D970FB602
:104B4000F894DEBF0FBECDBF789484B5826084BD7B
:104B500084B5816084BD85B5826085BD85B5816081
:104B600085BD80916E00816080936E0010928100FF
:104B700080918100826080938100809181008160BA
:104B8000809381008091800081608093800080917B
:104B9000B10084608093B1008091B0008160809307
:104BA000B00080919100826080939100809191008B
:104BB000816080939100809190008160809390004B
:104BC0008091A10082608093A1008091A10081600A
:104BD0008093A1008091A00081608093A0008091CB
:104BE0002101826080932101809121018160809365
:104BF00021018091200181608093200180917A00C1
:104C0000846080937A0080917A00826080937A0039
:104C100080917A00816080937A0080917A00806828
:104C200080937A001092C100E0910E07F0910F0777
:104C30000190F081E02DA089B18982E08C93A48558
:104C4000B5851C92A685B7858FE38C93108EA489B9
:104C5000B58986E08C93A289B3898C9180618C930D
:104C6000A289B3898C9188608C93A289B3898C9135
:104C700080688C930288F389E02D80818F7D80830A
:104C80001092100710921207109211071092190734
:104C90001092180710921707109216078FEF9FEFC8
:104CA00090931B0780931A0790931D0780931C070E
:104CB0000E942E046093A6077093A7078093A8070D
:104CC0009093A9071092A3071092200710921F0734
:104CD00010922107109222071092A5071092A407A4
:104CE00010921E0783E89CE19093EB068093EA06FE
:104CF0008EE693E19093E9068093E80610925E04B5
:104D000010925D0410925C0410925B040E944B119F
:104D10008AE394E090935A04809359048BE394E0DF
:104D200090935804809357041092810880918508CD
:104D3000823018F098E0909381089091860899232A
:104D400039F0813029F48091810884608093810852
:104D500062E370E080E090E00E94FC0360918708CD
:104D60008CE798E00E94101268EE73E080E090E01B
:104D70000E94FC0360E38CE798E00E94DA140BE4E5
:104D800016E4C8010197F1F760E38CE798E00E9410
:104D9000DA14C8010197F1F760E38CE798E00E940C
:104DA000DA1483E592E00197F1F760E28CE798E08E
:104DB0000E94DA1460918108606240E08CE798E01C
:104DC0000E94F31484E08093820840E06CE08CE75A
:104DD00098E00E94F31440E061E08CE798E00E94C4
:104DE000F3148BE39FE10197F1F782E0809383084E
:104DF00040E066E08CE798E00E94F3140E940A15F8
:104E000088E08093870860E08CE798E00E941012A9
:104E100061E673E08CE798E00E94FE158091B2068F
:104E2000882321F08DEA96E00E94160D10928E06DE
:104E300010928C06109289061092880685E3809362
:104E400087060E942E048B0161E0809187060E94F4
:104E50009B0361E0809187060E946D03FFB6F89482
:104E600080915F04811127C0EFEEF2E08491EFE8BA
:104E7000F2E09491E82FF0E0EE0FFF1FE052FE4FBA
:104E8000A591B491EC91E92321F461E085E30E94BE
:104E90006D0361E085E30E949B038CB580618CBD4E
:104EA0008CB580648CBD61E084E30E949B0361E06B
:104EB00083E30E949B0380915F048F5F80935F0474
:104EC000FFBE82E580938106109282068091810662
:104ED000909182060E94A705FAE0FF2E8FEF0E94B4
:104EE0008205FA94F110FACF83E896E00E94AA05B1
:104EF00020E030E0A90160E083E896E00E94C00570
:104F0000F82E80938D0621E08217B9F00E942E04BE
:104F1000601B710B613D774058F381E080938806F8
:104F200083E896E00E9477050E940A1565E773E022
:104F30008CE798E00E94FE15B1C02AEA31E040E01B
:104F400050E068E083E896E00E94C00582FF2AC036
:104F5000F0928E0680918E06C12CD12CE12C70E44B
:104F6000F72E823019F0C12CD12C760120E030E0F0
:104F7000A90167E383E896E00E94C005A7019601B6
:104F800069E283E896E00E94C00580938D0688233D
:104F9000D1F00E942E04601B710B613D774030F30D
:104FA00088E0BCCFE4E0FE2E0E94890580938D0648
:104FB000FA94F110F9CF8A3A11F082E0AFCF82E093
:104FC00080938E06C7CF80918E068230D1F420E088
:104FD00030E0A9016AE383E896E00E94C0058823D7
:104FE00011F086E09BCF0E948905807C803C19F4FB
:104FF00083E080938E060E9489050E9489050E94A5
:10500000890583E896E00E94770580E58093810614
:105010001092820681E00E94DF07882309F4AFC066
:105020008DEA96E00E94960A882309F47DCF0E94BB
:105030000A1569E673E08CE798E00E94FE1561E0CE
:105040008BE30E949B0361E08BE30E946D0361E0B0
:1050500087E30E949B0361E087E30E946D0360E0A9
:1050600086E30E949B03809127028F938091260202
:105070008F93809129028F93809128028F9388E8E3
:1050800092E09F938F93CE0101969F938F930E94FE
:10509000CB2F0FB6F894DEBF0FBECDBF30E8A32EE6
:1050A000B12C5524539442E0842E912C01E010E061
:1050B00053E0252E312C612C77247394C090100777
:1050C000B0E1BC1508F480C0E0910E07F0910F0725
:1050D00080819181DC01ED91FC910084F185E02DCE
:1050E0001995892B09F470C08091B3078E7F809346
:1050F000B307E0910E07F0910F0780819181DC01E9
:10510000ED91FC910284F385E02D1995F82EBDEF09
:105110008B1709F459C080911807909119070097CF
:1051200009F0E8C2F0921307E09011078E2D0E945B
:10513000FA120E940813882351F0F7FC08C0E0928D
:105140001307F09214071093190700931807F090B3
:1051500013078F2D0E94FA12813F09F496C208F0BE
:105160002DC2803B39F090F4803921F0803A11F063
:105170008038A1F430921707209216078AC280E087
:105180000E94DF07882309F4CFCE4ACF803D09F47F
:105190007CC208F004C2803C09F477C28091B30756
:1051A00081608093B307E091E606F091E7063097BF
:1051B00009F0199510921907109218071092170705
:1051C000109216071092110740916C0450916D04D3
:1051D00060916E0470916F048091680490916904ED
:1051E000A0916A04B0916B04481759076A077B07BE
:1051F00009F46EC0F12CE12CDE2C809168049091B2
:105200006904A0916A04B0916B040E2C04C0B69599
:10521000A795979587950A94D2F780FF17C080913C
:105220006C0490916D04A0916E04B0916F040E2CEB
:1052300004C0B695A795979587950A94D2F780FDF7
:1052400005C061E084E28E0D0E944E1380916804D7
:1052500090916904A0916A04B0916B040D2C04C074
:10526000B695A795979587950A94D2F780FD18C0B3
:1052700080916C0490916D04A0916E04B0916F04C4
:1052800004C0B695A79597958795DA94D2F780FFD5
:1052900007C021E04FE764E26E0D80E80E94211311
:1052A0008FEFE81AF80A90E2E916F10409F0A4CFAA
:1052B0008091680490916904A0916A04B0916B0494
:1052C00080936C0490936D04A0936E04B0936F046C
:1052D0004091640450916504609166047091670484
:1052E0008091600490916104A0916204B091630484
:1052F000481759076A077B0709F474C0F12CE12CA1
:10530000DE2C8091640490916504A0916604B091B4
:1053100067040E2C04C0B695A795979587950A94B7
:10532000D2F780959095A095B095409160045091EA
:10533000610460916204709163040E2C04C0769540
:105340006795579547950A94D2F7842380FF05C047
:1053500061E084E48E0D0E944E1380916004909170
:105360006104A0916204B09163040D2C04C0B69551
:10537000A795979587950A94D2F780959095A095D3
:10538000B0954091640450916504609166047091F9
:10539000670404C07695679557954795DA94D2F7D8
:1053A000842380FF07C021E04FE764E46E0D80E8AE
:1053B0000E942113AFEFEA1AFA0AB1E2EB16F104E8
:1053C00009F09ECF8091600490916104A0916204E5
:1053D000B09163048093640490936504A093660481
:1053E000B093670487E30E944403892BD9F58BE3CC
:1053F0000E9444030197B1F580917B00877F8093E1
:105400007B00E0E4E0937C0080917A0080648093EC
:105410007A0080917A0086FDFCCF609178007091CF
:105420007900072E000C880B990B0E94092D20E0B3
:1054300030E040EA51E40E94442D20E030E040E8B2
:105440005AE30E94442D0E941F2E70932302609302
:10545000220220912002309121022617370711F0F5
:105460000E94CB1A809122029091230290932102F4
:105470008093200280917B08823008F0A4C2F894C7
:1054800080E798E00E947513409177085091780862
:105490006091790870917A08789420917404309121
:1054A0007504C901032E000CAA0BBB0B84179507CA
:1054B000A607B70709F443C0809172049091730462
:1054C000840F951F821B930B909373048093720437
:1054D00050937504409374049C0197FF04C02227E5
:1054E0003327281B390B243031054CF1209126023B
:1054F00030912702181619060CF067C2121613060F
:105500000CF070C22330F1E03F0714F022E031E0EC
:105510002150310930932702209326021092730400
:105520001092720480912602909127028130A1E0AE
:105530009A070CF45AC21093270200932602809116
:1055400026029091270220917004309171048217F5
:10555000930711F1909325028093240261E080E08B
:105560000E94151564E873E08CE798E00E94FE1530
:1055700061E088E00E941515609124027091250277
:105580008CE798E00E94C415809126029091270232
:1055900090937104809370040E9440058FCD803EEB
:1055A00009F4E8CD803F09F0F9CDB0921707A09239
:1055B000160710921107809323076BC0873FA9F34A
:1055C00008F05CC0833F09F460C008F4D3CD863F87
:1055D00009F0E4CD8093200710921F071092210755
:1055E000109222075092A3071092190710921807E1
:1055F000109217071092160780912007803939F40E
:1056000080912207811103C0B0E8B09320078091F8
:1056100020078058813630F480911F07C81611F09A
:10562000C11002C00E94F70180911E07382F31700F
:1056300080FFCACD982F9E7F09F4C6CD9091200798
:1056400020E8290F213608F032C120911F07C21629
:1056500019F031E0C11030E08695823009F420C1A4
:10566000833009F421C1813009F0AECD4091220789
:1056700060912107892F0E946213A6CD8D3F08F407
:10568000A9CF8E3F08F0A6CF89CD909217078092C0
:10569000160720911807309119074091160750916D
:1056A00017074150510924173507E8F08093200768
:1056B000EF2DEF70FE2EF394F0921F0780911407E8
:1056C00080932107109222071093A5070093A40747
:1056D00010921907109218071092170710921607C8
:1056E0005092A30789CF2F5F3F4F30931907209324
:1056F00018076ACDF7FE10C0FCEFFF1508F44AC08A
:1057000028EFF21608F04AC0A0EFFA1609F453C0C9
:10571000B7EFFB1609F44FC020911307FC01EC51C1
:10572000F94F203F19F0273F09F06EC0F7AEE09027
:105730001607F09017079701215031098217930738
:1057400008F4A8C040901307E0EF4E1619F0F7EFE9
:105750004F125CC0F090A20720EF2093A207209385
:10576000200780E8809321071092220710921F07DC
:10577000B092A507A092A4075092A3070E94F70138
:1057800097EF90932307F092240790921907809245
:1057900018071ACDEEEFFE1608F4BECFF0922007E0
:1057A000109221071092220710921F071093A5074D
:1057B0000093A40795CF20912307203F19F0273F9E
:1057C00009F0ECCC9C012F5F3F4F8C51994FDC01CD
:1057D000DF96FC92B0EFB09320072093210730931F
:1057E000220710921F073093A5072093A407509219
:1057F000A30710921907109218071092170710921A
:10580000160710921107F8CEF7A691CF842D0E94AB
:10581000FA12D82E809320070E940813882369F17A
:10582000842D8F708F5F80931F0780911407809362
:10583000210780911507A3E0EA16F10409F080E042
:1058400080932207109219071092180710921707D9
:10585000109216075092A307B0EBDB1659F0BD1556
:1058600078F0E0E9DE1631F0F0EADF1619F020E812
:10587000D212C7CF40921107BFCE10921F07D5CFCB
:1058800080EDD816B9F390EED916A1F3A0ECDA1298
:10589000B8CFF0CF0196909319078093180794CC56
:1058A000332309F491CCE2CE31118ECCDFCEE0E18E
:1058B000E90FE03108F088CCF0E08827ED59F34D8E
:1058C0008F4F0C94772E792CCD2CAE2C9C2CE42869
:1058D000E428732CE428732CE428732C732C732C89
:1058E000E428732C732C692F8EE097E00E945413E8
:1058F0006BCCC0902107D0902207E1E8CE16D104EE
:1059000018F020E8C22ED12C94EEE92E96E0F92E64
:10591000C701845E96408C159D0508F055CCD701D3
:10592000DF966C9180910E0790910F070E941713DC
:10593000BFEFEB1AFB0AECCFF090210763EF8091E9
:105940000E0790910F070E9417136F2D6F778091AC
:105950000E0790910F070E94171336CCE090220794
:10596000E0E8EE9E7001112480912107E82A62EFA1
:1059700080910E0790910F070E9417136E2D6F777D
:1059800080910E0790910F070E941713B701660FC1
:10599000672F661F770B7195D9CF60912107F0E1D2
:1059A0006F9FB00111246077F09022072F2D2F7088
:1059B000F22EF62A61EF80910E0790910F070E9458
:1059C00017136F2DC4CFF8945FCD2F3F8FEF38079B
:1059D0004CF0213091E0390714F020E031E02F5FE6
:1059E0003F4F98CD30E020E095CD181619060CF405
:1059F000A6CD7092270260922602A1CD91110C943F
:105A0000B12D803219F089508550C8F70895E89477
:105A100009C097FB3EF490958095709561957F4FF6
:105A20008F4F9F4F9923A9F0F92F96E9BB279395A4
:105A3000F695879577956795B795F111F8CFFAF4B4
:105A4000BB0F11F460FF1BC06F5F7F4F8F4F9F4FE5
:105A500016C0882311F096E911C0772321F09EE843
:105A6000872F762F05C0662371F096E8862F70E0A9
:105A700060E02AF09A95660F771F881FDAF7880F83
:105A80009695879597F908950E94572D0C94CB2DE4
:105A90000E94BD2D38F00E94C42D20F0952311F0F6
:105AA0000C94B42D0C94BA2D11240C94FF2D0E944B
:105AB000DC2D70F3959FC1F3950F50E0551F629F49
:105AC000F001729FBB27F00DB11D639FAA27F00D57
:105AD000B11DAA1F649F6627B00DA11D661F829F7E
